{
  "abi": [
    {
      "inputs": [
        {
          "internalType": "contract ISwapRouter",
          "name": "_swapRouter",
          "type": "address"
        },
        {
          "internalType": "address",
          "name": "_factory",
          "type": "address"
        },
        {
          "internalType": "address",
          "name": "_WETH9",
          "type": "address"
        }
      ],
      "stateMutability": "nonpayable",
      "type": "constructor"
    },
    {
      "inputs": [],
      "name": "WETH9",
      "outputs": [
        {
          "internalType": "address",
          "name": "",
          "type": "address"
        }
      ],
      "stateMutability": "view",
      "type": "function"
    },
    {
      "inputs": [],
      "name": "factory",
      "outputs": [
        {
          "internalType": "address",
          "name": "",
          "type": "address"
        }
      ],
      "stateMutability": "view",
      "type": "function"
    },
    {
      "inputs": [
        {
          "components": [
            {
              "internalType": "address",
              "name": "token0",
              "type": "address"
            },
            {
              "internalType": "address",
              "name": "token1",
              "type": "address"
            },
            {
              "internalType": "uint24",
              "name": "fee1",
              "type": "uint24"
            },
            {
              "internalType": "uint256",
              "name": "amount0",
              "type": "uint256"
            },
            {
              "internalType": "uint256",
              "name": "amount1",
              "type": "uint256"
            },
            {
              "internalType": "uint24",
              "name": "fee2",
              "type": "uint24"
            },
            {
              "internalType": "uint24",
              "name": "fee3",
              "type": "uint24"
            }
          ],
          "internalType": "struct PairFlash.FlashParams",
          "name": "params",
          "type": "tuple"
        }
      ],
      "name": "initFlash",
      "outputs": [],
      "stateMutability": "nonpayable",
      "type": "function"
    },
    {
      "inputs": [],
      "name": "refundETH",
      "outputs": [],
      "stateMutability": "payable",
      "type": "function"
    },
    {
      "inputs": [],
      "name": "swapRouter",
      "outputs": [
        {
          "internalType": "contract ISwapRouter",
          "name": "",
          "type": "address"
        }
      ],
      "stateMutability": "view",
      "type": "function"
    },
    {
      "inputs": [
        {
          "internalType": "address",
          "name": "token",
          "type": "address"
        },
        {
          "internalType": "uint256",
          "name": "amountMinimum",
          "type": "uint256"
        },
        {
          "internalType": "address",
          "name": "recipient",
          "type": "address"
        }
      ],
      "name": "sweepToken",
      "outputs": [],
      "stateMutability": "payable",
      "type": "function"
    },
    {
      "inputs": [
        {
          "internalType": "uint256",
          "name": "fee0",
          "type": "uint256"
        },
        {
          "internalType": "uint256",
          "name": "fee1",
          "type": "uint256"
        },
        {
          "internalType": "bytes",
          "name": "data",
          "type": "bytes"
        }
      ],
      "name": "uniswapV3FlashCallback",
      "outputs": [],
      "stateMutability": "nonpayable",
      "type": "function"
    },
    {
      "inputs": [
        {
          "internalType": "uint256",
          "name": "amountMinimum",
          "type": "uint256"
        },
        {
          "internalType": "address",
          "name": "recipient",
          "type": "address"
        }
      ],
      "name": "unwrapWETH9",
      "outputs": [],
      "stateMutability": "payable",
      "type": "function"
    },
    {
      "stateMutability": "payable",
      "type": "receive"
    }
  ],
  "bytecode": {
    "object": "0x60e06040523480156200001157600080fd5b50604051620016943803806200169483398101604081905262000034916200005c565b6001600160601b0319606092831b811660805290821b811660a05291901b1660c052620000c8565b60008060006060848603121562000071578283fd5b83516200007e81620000af565b60208501519093506200009181620000af565b6040850151909250620000a481620000af565b809150509250925092565b6001600160a01b0381168114620000c557600080fd5b50565b60805160601c60a05160601c60c05160601c61155b62000139600039806104b85280610632528061065d52806106ae5280610819525080608f528061031c528061040752806104945280610e185280610e5e5280610ed252508061021252806104dc52806105f1525061155b6000f3fe60806040526004361061007f5760003560e01c8063c31c9c071161004e578063c31c9c071461015a578063c45a01551461016f578063df2ab5bb14610184578063e9cbafb014610197576100ef565b806312210e8a146100f45780632384463b146100fc57806349404b7c1461011c5780634aa4a4fc1461012f576100ef565b366100ef57336001600160a01b037f000000000000000000000000000000000000000000000000000000000000000016146100ed576040805162461bcd60e51b81526020600482015260096024820152684e6f7420574554483960b81b604482015290519081900360640190fd5b005b600080fd5b6100ed6101b7565b34801561010857600080fd5b506100ed610117366004611256565b6101c9565b6100ed61012a366004611309565b610318565b34801561013b57600080fd5b50610144610492565b60405161015191906113b8565b60405180910390f35b34801561016657600080fd5b506101446104b6565b34801561017b57600080fd5b506101446104da565b6100ed61019236600461113d565b6104fe565b3480156101a357600080fd5b506100ed6101b2366004611334565b6105dc565b47156101c7576101c73347610975565b565b6000604051806060016040528083600001516001600160a01b0316815260200183602001516001600160a01b03168152602001836040015162ffffff16815250905060006102377f000000000000000000000000000000000000000000000000000000000000000083610a64565b9050806001600160a01b031663490e6cbc30856060015186608001516040518060c001604052808960600151815260200189608001518152602001336001600160a01b031681526020018881526020018960a0015162ffffff1681526020018960c0015162ffffff168152506040516020016102b391906114a6565b6040516020818303038152906040526040518563ffffffff1660e01b81526004016102e194939291906113cc565b600060405180830381600087803b1580156102fb57600080fd5b505af115801561030f573d6000803e3d6000fd5b50505050505050565b60007f00000000000000000000000000000000000000000000000000000000000000006001600160a01b03166370a08231306040518263ffffffff1660e01b815260040180826001600160a01b0316815260200191505060206040518083038186803b15801561038757600080fd5b505afa15801561039b573d6000803e3d6000fd5b505050506040513d60208110156103b157600080fd5b50519050828110156103ff576040805162461bcd60e51b8152602060048201526012602482015271496e73756666696369656e7420574554483960701b604482015290519081900360640190fd5b801561048d577f00000000000000000000000000000000000000000000000000000000000000006001600160a01b0316632e1a7d4d826040518263ffffffff1660e01b815260040180828152602001915050600060405180830381600087803b15801561046b57600080fd5b505af115801561047f573d6000803e3d6000fd5b5050505061048d8282610975565b505050565b7f000000000000000000000000000000000000000000000000000000000000000081565b7f000000000000000000000000000000000000000000000000000000000000000081565b7f000000000000000000000000000000000000000000000000000000000000000081565b6000836001600160a01b03166370a08231306040518263ffffffff1660e01b815260040180826001600160a01b0316815260200191505060206040518083038186803b15801561054d57600080fd5b505afa158015610561573d6000803e3d6000fd5b505050506040513d602081101561057757600080fd5b50519050828110156105c5576040805162461bcd60e51b815260206004820152601260248201527124b739bab33334b1b4b2b73a103a37b5b2b760711b604482015290519081900360640190fd5b80156105d6576105d6848383610b48565b50505050565b60006105ea82840184611178565b905061061a7f00000000000000000000000000000000000000000000000000000000000000008260600151610c96565b506060810151805160209091015182516106579083907f000000000000000000000000000000000000000000000000000000000000000090610cbf565b610686817f00000000000000000000000000000000000000000000000000000000000000008560200151610cbf565b6000610696846020015188610e06565b905060006106a885600001518a610e06565b905060007f00000000000000000000000000000000000000000000000000000000000000006001600160a01b031663414bf389604051806101000160405280876001600160a01b03168152602001886001600160a01b03168152602001896080015162ffffff168152602001306001600160a01b031681526020014281526020018960200151815260200185815260200160006001600160a01b03168152506040518263ffffffff1660e01b8152600401610763919061143d565b602060405180830381600087803b15801561077d57600080fd5b505af1158015610791573d6000803e3d6000fd5b505050506040513d601f19601f820116820180604052508101906107b591906112f1565b60408051610100810182526001600160a01b038881168252878116602083015260a08a81015162ffffff16838501523060608401524260808401528a519083015260c08201879052600060e08301819052925163414bf38960e01b815293945091927f00000000000000000000000000000000000000000000000000000000000000009092169163414bf3899161084e9160040161143d565b602060405180830381600087803b15801561086857600080fd5b505af115801561087c573d6000803e3d6000fd5b505050506040513d601f19601f820116820180604052508101906108a091906112f1565b905060006108b288600001518d610e06565b905060006108c489602001518d610e06565b90506108d1883084610cbf565b6108dc873083610cbf565b81156108ee576108ee88303385610e16565b80156109005761090087303384610e16565b818411156109335760006109148584610fa6565b9050610921893083610cbf565b61093189308c6040015184610e16565b505b808311156109665760006109478483610fa6565b9050610954893083610cbf565b61096488308c6040015184610e16565b505b50505050505050505050505050565b604080516000808252602082019092526001600160a01b0384169083906040518082805190602001908083835b602083106109c15780518252601f1990920191602091820191016109a2565b6001836020036101000a03801982511681845116808217855250505050505090500191505060006040518083038185875af1925050503d8060008114610a23576040519150601f19603f3d011682016040523d82523d6000602084013e610a28565b606091505b505090508061048d576040805162461bcd60e51b815260206004820152600360248201526253544560e81b604482015290519081900360640190fd5b600081602001516001600160a01b031682600001516001600160a01b031610610a8c57600080fd5b50805160208083015160409384015184516001600160a01b0394851681850152939091168385015262ffffff166060808401919091528351808403820181526080840185528051908301206001600160f81b031960a085015294901b6bffffffffffffffffffffffff191660a183015260b58201939093527fe34f199b19b2b4f47f68442619d555527d244f78a3297ea89325f843f87b8b5460d5808301919091528251808303909101815260f5909101909152805191012090565b604080516001600160a01b038481166024830152604480830185905283518084039091018152606490920183526020820180516001600160e01b031663a9059cbb60e01b1781529251825160009485949389169392918291908083835b60208310610bc45780518252601f199092019160209182019101610ba5565b6001836020036101000a0380198251168184511680821785525050505050509050019150506000604051808303816000865af19150503d8060008114610c26576040519150601f19603f3d011682016040523d82523d6000602084013e610c2b565b606091505b5091509150818015610c59575080511580610c595750808060200190516020811015610c5657600080fd5b50515b610c8f576040805162461bcd60e51b815260206004820152600260248201526114d560f21b604482015290519081900360640190fd5b5050505050565b6000610ca28383610a64565b9050336001600160a01b03821614610cb957600080fd5b92915050565b604080516001600160a01b038481166024830152604480830185905283518084039091018152606490920183526020820180516001600160e01b031663095ea7b360e01b1781529251825160009485949389169392918291908083835b60208310610d3b5780518252601f199092019160209182019101610d1c565b6001836020036101000a0380198251168184511680821785525050505050509050019150506000604051808303816000865af19150503d8060008114610d9d576040519150601f19603f3d011682016040523d82523d6000602084013e610da2565b606091505b5091509150818015610dd0575080511580610dd05750808060200190516020811015610dcd57600080fd5b50515b610c8f576040805162461bcd60e51b8152602060048201526002602482015261534160f01b604482015290519081900360640190fd5b80820182811015610cb957600080fd5b7f00000000000000000000000000000000000000000000000000000000000000006001600160a01b0316846001600160a01b0316148015610e575750804710155b15610f79577f00000000000000000000000000000000000000000000000000000000000000006001600160a01b031663d0e30db0826040518263ffffffff1660e01b81526004016000604051808303818588803b158015610eb757600080fd5b505af1158015610ecb573d6000803e3d6000fd5b50505050507f00000000000000000000000000000000000000000000000000000000000000006001600160a01b031663a9059cbb83836040518363ffffffff1660e01b815260040180836001600160a01b0316815260200182815260200192505050602060405180830381600087803b158015610f4757600080fd5b505af1158015610f5b573d6000803e3d6000fd5b505050506040513d6020811015610f7157600080fd5b506105d69050565b6001600160a01b038316301415610f9a57610f95848383610b48565b6105d6565b6105d684848484610fb6565b80820382811115610cb957600080fd5b604080516001600160a01b0385811660248301528481166044830152606480830185905283518084039091018152608490920183526020820180516001600160e01b03166323b872dd60e01b178152925182516000948594938a169392918291908083835b6020831061103a5780518252601f19909201916020918201910161101b565b6001836020036101000a0380198251168184511680821785525050505050509050019150506000604051808303816000865af19150503d806000811461109c576040519150601f19603f3d011682016040523d82523d6000602084013e6110a1565b606091505b50915091508180156110cf5750805115806110cf57508080602001905160208110156110cc57600080fd5b50515b611106576040805162461bcd60e51b815260206004820152600360248201526229aa2360e91b604482015290519081900360640190fd5b505050505050565b80356001600160a01b038116811461112557600080fd5b919050565b803562ffffff8116811461112557600080fd5b600080600060608486031215611151578283fd5b61115a8461110e565b92506020840135915061116f6040850161110e565b90509250925092565b600081830361010081121561118b578182fd5b6040805160c0810167ffffffffffffffff82821081831117156111aa57fe5b81845286358352602087013560208401526111c684880161110e565b838501526060605f19860112156111db578586fd5b8351945060608501915084821081831117156111f357fe5b5082526112026060860161110e565b83526112106080860161110e565b602084015261122160a0860161112a565b8284015282606082015261123760c0860161112a565b608082015261124860e0860161112a565b60a082015295945050505050565b600060e08284031215611267578081fd5b60405160e0810181811067ffffffffffffffff8211171561128457fe5b6040526112908361110e565b815261129e6020840161110e565b60208201526112af6040840161112a565b604082015260608301356060820152608083013560808201526112d460a0840161112a565b60a08201526112e560c0840161112a565b60c08201529392505050565b600060208284031215611302578081fd5b5051919050565b6000806040838503121561131b578182fd5b8235915061132b6020840161110e565b90509250929050565b60008060008060608587031215611349578081fd5b8435935060208501359250604085013567ffffffffffffffff8082111561136e578283fd5b818701915087601f830112611381578283fd5b81358181111561138f578384fd5b8860208285010111156113a0578384fd5b95989497505060200194505050565b62ffffff169052565b6001600160a01b0391909116815260200190565b600060018060a01b038616825260208581840152846040840152608060608401528351806080850152825b818110156114135785810183015185820160a0015282016113f7565b81811115611424578360a083870101525b50601f01601f19169290920160a0019695505050505050565b81516001600160a01b03908116825260208084015182169083015260408084015162ffffff16908301526060808401518216908301526080808401519083015260a0838101519083015260c0808401519083015260e09283015116918101919091526101000190565b81518152602080830151818301526040808401516001600160a01b03908116828501526060808601518051831691860191909152928301511660808085019190915291015162ffffff1660a083015282015161010082019061150b60c08401826113af565b5060a083015161151e60e08401826113af565b509291505056fea26469706673582212207655e250892d51686cf6ae826dc4c734fd343494e71ceb7c083fd2732d71ebc364736f6c63430007060033",
    "linkReferences": {}
  },
  "methodIdentifiers": {
    "WETH9()": "4aa4a4fc",
    "factory()": "c45a0155",
    "initFlash((address,address,uint24,uint256,uint256,uint24,uint24))": "2384463b",
    "refundETH()": "12210e8a",
    "swapRouter()": "c31c9c07",
    "sweepToken(address,uint256,address)": "df2ab5bb",
    "uniswapV3FlashCallback(uint256,uint256,bytes)": "e9cbafb0",
    "unwrapWETH9(uint256,address)": "49404b7c"
  },
  "id": 0
}